:020000040000fa
:080000001202040000000000e0
:020000040000fa
:1004000000000000000000000000000000000000ec
:020000040000fa
:10000800700d0000700d0000700d0000700d0000f4
:10001800700d0000700d0000700d0000700d0000e4
:10002800700d0000700d0000700d0000700d0000d4
:10003800700d0000700d0000700d0000ba0900007e
:10004800700d0000700d0000700d0000700d0000b4
:10005800700d0000700d0000700d0000700d0000a4
:10006800700d0000700d0000700d0000ee0b000018
:10007800700d0000700d0000700d0000700d000084
:10008800700d0000700d0000700d0000700d000074
:10009800c4040000700d0000700d0000700d000019
:1000a800700d0000700d0000700d0000700d000054
:1000b800700d0000700d0000700d0000700d000044
:1000c800700d0000700d0000700d0000700d000034
:1000d800700d0000700d0000700d0000700d000024
:1000e800700d0000700d0000700d0000700d000014
:1000f800700d0000700d0000700d0000700d000004
:10010800700d0000700d0000700d0000700d0000f3
:10011800700d0000700d0000700d0000700d0000e3
:10012800700d0000700d0000700d0000700d0000d3
:10013800700d0000700d0000700d0000700d0000c3
:10014800700d0000700d0000700d0000700d0000b3
:10015800700d0000700d0000700d0000700d0000a3
:10016800700d0000700d0000700d0000700d000093
:10017800700d0000700d0000700d0000700d000083
:10018800700d0000700d0000700d0000700d000073
:10019800700d0000700d0000700d0000700d000063
:1001a800700d0000700d0000700d0000700d000053
:1001b800700d0000700d0000700d0000700d000043
:1001c800700d0000700d0000700d0000700d000033
:1001d800700d0000700d0000700d0000700d000023
:1001e800700d0000700d0000700d0000700d000013
:0801f800700d0000700d000005
:020000040000fa
:10020800700d0000700d0000700d0000700d0000f2
:10021800700d0000700d0000700d0000700d0000e2
:10022800700d0000700d0000700d0000700d0000d2
:10023800700d0000700d0000700d0000ba0900007c
:10024800700d0000700d0000700d0000700d0000b2
:10025800700d0000700d0000700d0000700d0000a2
:10026800700d0000700d0000700d0000ee0b000016
:10027800700d0000700d0000700d0000700d000082
:10028800700d0000700d0000700d0000700d000072
:10029800c4040000700d0000700d0000700d000017
:1002a800700d0000700d0000700d0000700d000052
:1002b800700d0000700d0000700d0000700d000042
:1002c800700d0000700d0000700d0000700d000032
:1002d800700d0000700d0000700d0000700d000022
:1002e800700d0000700d0000700d0000700d000012
:1002f800700d0000700d0000700d0000700d000002
:10030800700d0000700d0000700d0000700d0000f1
:10031800700d0000700d0000700d0000700d0000e1
:10032800700d0000700d0000700d0000700d0000d1
:10033800700d0000700d0000700d0000700d0000c1
:10034800700d0000700d0000700d0000700d0000b1
:10035800700d0000700d0000700d0000700d0000a1
:10036800700d0000700d0000700d0000700d000091
:10037800700d0000700d0000700d0000700d000081
:10038800700d0000700d0000700d0000700d000071
:10039800700d0000700d0000700d0000700d000061
:1003a800700d0000700d0000700d0000700d000051
:1003b800700d0000700d0000700d0000700d000041
:1003c800700d0000700d0000700d0000700d000031
:1003d800700d0000700d0000700d0000700d000021
:1003e800700d0000700d0000700d0000700d000011
:0803f800700d0000700d000003
:020000040000fa
:10041000060400000e240000221c00001a08000040
:10042000120000004507a90000002000403a8800a3
:100430004f9c200000ff2000000188000000000009
:1004400081e0a8004440a8000000eb003c00090047
:100450000060fe000000e900fcff3a004007ae002b
:10046000050037004007a900408020008003fc0001
:10047000df0009000018eb00c422ef00cc22ef00df
:10048000cce2a800cc22a800cc02a800c022ef0039
:10049000c822ef000548a900c9c2a800e3c4a9000a
:1004a0005780a8007f0009000060fe00cbc2af00ab
:1004b0000548a8005780a9006f80a8007f000900a8
:1004c0000060fe00cbc2af000548aa006f80a90003
:1004d0000548aa00c002a800e004a9006e40a800d8
:1004e000c9e2a800e3e4a9006f60a80010000900b9
:1004f0000060fe006360a8009660a8000548ae009a
:100500000c003700c9c2a800e3c4a8005780a800a7
:10051000a0002000401a880000072000001a880070
:1005200060f12100201a88004143a80041e3a8009f
:100530004023a800a0022000b00c8800000d880015
:10054000500d8800c0002100900c8800e00c88004d
:10055000300d8800a00b20006008880011e1a80081
:100560000060fe00c202ae00fdff3700f0ff270072
:100570001008880005e1a80000852000e802fc00c2
:10058000b90009000018eb000408a9000428a9001c
:100590000468a9000568a900f00f2000e042880067
:1005a000104488004045880001002000e20b020052
:1005b000000000000040880021002000e20b020043
:1005c000000000008080ea000200320060428800e3
:1005d00002003700e0ff2700604288009000200002
:1005e0000008e300050036000008e20002003d00bc
:1005f00000408800010037000028ef000040800024
:100600000060010009003700240037004300370074
:100610003f0037005a00370058003700830037008a
:10062000a1003700c7003700ce00370000002000cf
:100630008042880080042000b04388000009200028
:10064000e0448800a0f32b00c0428800f0438800fb
:100650002045880010002000a0428800d043880078
:1006600000458800b0428800e043880010458800bb
:10067000c001200090428800c0438800f0448800f8
:10068000408c20001a00090030f0a000c5e8a90045
:10069000d7e8a900e9e8a900e90037000000200038
:1006a00080428800200a2000b043880040142000c7
:1006b000e0448800f0ff2700c0428800f043880033
:1006c0002045880010002000a0428800d043880008
:1006d0000045880020002000b0428800e0438800e8
:1006e000104588002001200090428800c043880007
:1006f000f0448800408c20001a00090030f0a0006f
:10070000c5e8a900d7e8a900e9e8a900cc003700ae
:100710006208a8008808a800ae08a800f0ff27001b
:10072000c0428800f0ff2700f0438800f0ff270058
:100730002045880010002000a0428800d043880097
:1007400000458800b0428800e043880010458800da
:100750008003200090428800c0438800f044880055
:10076000408c20001a00090030f0a000c5e8a90064
:10077000dde8a900f5e8a900b1003700ae08a8003f
:100780000428a800a05f2000e042880000002000ac
:1007900080428800b0438800e044880000002100c7
:1007a000c0428800f0ff2f00f0438800f0ff2f00c8
:1007b0002045880010002000a0428800f00f200093
:1007c000d04388000002200000458800a05f200080
:1007d000b042880000002000e043880010002000a4
:1007e0001045880010002000904288000000200082
:1007f000c0438800c0012000f0448800a08f200082
:100800001a00090030f0a000fbe8a9000de9a900da
:100810001fe9a900ae28a80010002000504588005c
:100820000000200060458800850037000428a800eb
:1008300000602000e0428800000020008042880024
:10084000b0438800e0448800f0ff2000c0428800e8
:10085000f0ff2f00f0438800f0ff2f0020458800b4
:1008600010002000a0428800f00f2000d043880034
:10087000100020000045880000602000b042880081
:1008800000002000e0438800104588004000200060
:1008900090428800a08f20000800090030f0a000de
:1008a000fbe8a900660037000000200080428800b5
:1008b00000202000b043880000402000e044880071
:1008c000f0ff2f00c0428800f043880020458800d8
:1008d00010002000a0428800d04388000045880016
:1008e000b0428800e043880010458800c001200025
:1008f00090428800c0438800f0448800408c20006b
:100900001a00090030f0a000c5e8a900d7e8a90046
:10091000e9e8a9006228a8008828a800ae28a80055
:1009200010002000f04288002044880050458800d4
:10093000c03f2000004388003044880060458800a4
:100940003f0037000548af00020037000028ef00e5
:10095000c50037000468a800e07420001046880035
:10096000370037000548af00020037000028ef00cd
:10097000bd0037000468a8000428a800a06f20006c
:10098000104688002e0037000228ef000060fe00ad
:1009900040a7a90005e1a90011e1a90094e0a90080
:1009a00084e0a9009780a9008780a900c0a2ef0079
:1009b000c8a2ef00c202ae00feff37000000eb004d
:1009c0007f0009000060fe000000e900fcff3a0023
:1009d000cbe2ae00feff370004e8a9008660a90064
:1009e0006240a8009660a8000040fe00c202ae006f
:1009f00011003700f0ff2700100888008460a9006c
:100a000005e1a800a00f20006040880004e8af00c6
:100a1000060037008460ae00fcff37008460a90048
:100a20000c28ed00f9ff3a00e9ff37001000200024
:100a30000808e300e6ff3a004007a8000000fe00b7
:100a40000060fe0040a7a80094e0a8008460ae000b
:100a5000feff37008460a9000c28ed004200ae00c4
:100a600010a8ef0004e8ae007700370004e8a90002
:100a7000100020000808e30073003a0030408000b6
:100a80001008e3007000320080408800a10f2000b1
:100a90006140880001002000a10188004159280020
:100aa000225c28003100e100030032000208e1006e
:100ab000fcff3a0064003700425928008280500051
:100ac0008100d1008100e900016001002d003700a4
:100ad0002c0037002d0037002c0037002d00370088
:100ae00035003700340037003d0037003c00370048
:100af000a5ff3700a4ff3700420037004100370050
:100b0000400037003f0037003e0037003d0037000f
:100b10003c0037003b0037003a003700390037000f
:100b20003a0037003f00370074000000100000005a
:100b30007500000011000000650000003300000097
:100b40001200000034000000130000001500000037
:100b5000360000000000000001000000020000005c
:100b60000300000004000000050000000600000073
:100b70000700000008000000090000001400000049
:100b8000160000000028ec00370037000028ed00b8
:100b9000350037004c08e200020032004c28ef001c
:100ba0002900370021002000e20b020000000000b5
:100bb0006042880024003700f0ff2e004c08e3005c
:100bc00021003e00000021004c28b400604280005b
:100bd00021002000ba0b0200000000001a003700bc
:100be000000021004c08e300170036004c28b50037
:100bf0006042800021002000ba0b020000000000cb
:100c00001100370000408800170037000508aa00cf
:100c10000508ae000528aa000528af000508aa00af
:100c200009003700e0ff2700604288002100200013
:100c3000ba0b0200000000000508a9000528a90061
:100c40000028ef000800370028080200000000001c
:100c50004628af004cff37004648ae000d00370075
:100c60004648a9000028ec0094e0a9000060fe00be
:100c700084e0ae00fdff370000408000010020004e
:100c8000ba0b0200000000000060fe0040a7a900af
:100c900036fe37000468ae0003003700b6070200d6
:100ca0000000000003003700604280004e28b400be
:100cb00066ff3900c208e2000200320010468000e0
:100cc000000001000428af000f0037000408a8004e
:100cd00001852000428c20006a080200000000000c
:100ce00061872000628d20006a0802000000000079
:100cf000c1892000828e20006a08020000000000e6
:100d00000408a90051ff370001852000a28f2000b0
:100d10006a0802000000000061872000c2902000e5
:100d20006a08020000000000c1892000e291200052
:100d30006a08020000000000f6080200000000003f
:100d400042ff3700428c2000638d2000200c2000e1
:100d50003608b500f10f20006004b10002003b002e
:100d600080804000010037008080500001003b007f
:100d70008000eb00011978000390e700f5ff3700d1
:100d8000838e2000500c20003808b500f10f2000a1
:100d9000a005b10002003b00808040000100370048
:100da0008080500001003b008000eb0001197800ba
:100db0000390e700f5ff3700a38f200020112000eb
:100dc0003a08b500f10f20002008b10002003b00f6
:100dd00080804000010037008100780001003b0066
:100de0008000eb00011978000390e700f5ff370061
:100df00000000600e291200003932000200c200058
:100e00003608b500f10f20006004b10002003b007d
:100e100080804000010037008100780001003b0025
:100e20008000eb00011978000390e700f5ff370020
:100e3000a28f2000c3902000201220003608b500a9
:100e4000f10f2000a000b10002003b000082400032
:100e5000010037000082500001003b000402ea005c
:100e60004428ec0025428000c82ade00050242002a
:100e7000f40fb2006622b800041978000390e7006e
:100e8000f0ff3700c2902000f00f20000900fc00a6
:100e90000800090000197800000006000408a800f6
:100ea000a2060200000000000488ae000500370022
:100eb000b0418000411f20000100e10009003e0018
:100ec0000488a900b0418000412420000100e10015
:100ed000040039004228ec00c05d20000042880078
:100ee0000488a800b0418000010420000100e10056
:100ef00003003e004028ed0001003a004228ef00c8
:100f00004208af009c070200000000004228af002a
:100f100096070200000000004248af00a20702004e
:100f2000000000000408a90000000600418c200019
:100f3000628d200005003700418c2000828e200049
:100f400002003700618d2000828e2000820178002f
:100f50002301b00012007800111978008018780081
:100f60000390e700fbff37000000060085a0ae00fd
:100f70000000060085a0a9004023a80000188000fa
:100f800021812000124180008030790022a8ec00ed
:100f9000e30020000310e1004200af002228ef0030
:100fa0000001eb000800fc000700090031014100ce
:100fb0004311de000202b1004260af000001eb000d
:100fc000e2418800e0418000011920000100e100b9
:100fd00002003500010040000000d100f13f200078
:100fe0000100e10001003600010078003608e3004e
:100ff000020034003628ed0001003700b0418800bf
:101000000568a9003608e2004220af000568a80084
:101010003808e3000300340038a8ed003808e30086
:1010200001003c00c04188003a08e300060034009b
:101030003aa8ed003a08e300030034003aa8ed00b6
:101040003a08e30001003c00d0418800000006009f
:10105000101680000000a30048a8d600618420007c
:101060003608020000000000000006001100a70082
:1010700008003700f0ff2f0011019000020160000e
:1010800003003a001100a000000f2000a00098000b
:1010900000000600f0ff2f00110190000201600027
:1010a0000001690003003a001100a1001120a00016
:1010b00000000600648140001209e90001003200ce
:1010c000000006001110a000000f2000a0009800f2
:1010d00000000600608040001000e00002003200c6
:1010e0001008e9000000060041009000ea8140007d
:1010f00093094000010031000000060082047800de
:10110000000120008005410021069000b1069000fa
:10111000110490006107900088035700110b9000a4
:101120000600a700020037006205410001003700f9
:101130000b057800f4824000f0ff230019006000e6
:1011400019f0a60003003700950ae9001b003a00d9
:1011500019f0a10019e0a7000d0037000040e700da
:101160001af0a1000c0040000e00e100130039004d
:101170000e00780019e0a2000610a6000f0037004c
:1011800019f0a000f1019000830a78000b003700ed
:101190000038e7001af0a1000d00500007003100f0
:1011a0000000eb0019e0a2000610a60003003700c3
:1011b00019f0a00081099000830a780003002c0038
:1011c000998c6100990c70000b48e7000000060044
:1011d0008582e8008984e8000a85e8000b50e60073
:1011e000d5ff370002057800d3ff3700a38f20001a
:1011f000478c2000498d20000408a800f0ff230040
:101200001302780004026000930a900085026000d7
:1012100023139000060360001e0902000000000076
:101220000938e100030032008381e8008783e80089
:10123000f2ff37000408a900000006000500e000e6
:1012400004003a00860b7800960b9800a6139800cd
:1012500000000600e44d88004820de00d04d8800e4
:101260004800dd00bc29b50000102000050050003a
:101270000600b8004800de00f04d8800e04d800018
:101280000500b8004800de000000ea000010b000d1
:101290000600b8004800de00004e8800e04d8000e7
:1012a0000000ea000010b0000500b8004800de00b1
:1012b0000000ea000010b0000600b8004800de00a0
:1012c000104e8800d04d80000060010005003700fe
:1012d0000a0037000f0037001400370019003700ec
:1012e0001e003700860b7800104e8000900b98008f
:1012f000f04d8000a013980000000600004e800012
:10130000800b7800960b9800f04d8000a013980099
:1013100000000600f04d8000800b7800960b9800ce
:10132000104e8000a013980000000600f04d8000d1
:10133000800b7800004e8000900b9800a613980058
:1013400000000600104e8000800b7800f04d8000f9
:10135000900b9800a613980000000600860b7800fa
:10136000f04d8000900b9800004e8000a013980074
:101370000000060000a0fe00849fbe00804980009f
:1013800000600100480037000f0037001b003700e5
:101390003029ef00a04980000568ae00a00c88004d
:1013a00040c021000568ae00800c8800a04d800080
:1013b000b14d800020168800611688008c0a02005a
:1013c000000000004b003700a04980000568ae0017
:1013d000400d880040c021000568ae00200d880047
:1013e000a04d8000b14d8000201688006116880055
:1013f000920a0200000000003e003700a049800071
:101400000568ae00f00c880040c021000568ae0001
:10141000d00c8800a04d8000b14d800020168800bf
:101420006116880032a9ec00f00f20003209e300b9
:10143000210036000408af001b0037000000200028
:10144000900188000000eb0085202000418c2000e6
:10145000648d2000629320003540ba00313178005d
:101460000408e100fcff3a0085202000618d200087
:10147000848e2000029620003540ba003131780079
:101480000408e100fcff3a0085202000818e200046
:10149000a48f2000a29820003540ba003131780096
:1014a0000408e100fcff3a003229ef003229ec0089
:1014b0002000200080498800a10180000000200059
:1014c000a0018800a3ab2800904980000508af0068
:1014d0000000d1000528af000000d1000000a100ed
:1014e00063007800a0498800a1018800860a0200f4
:1014f000000000003029ec000060fe004f02be003a
:101500000080fe0084e0a9000040060061932000f6
:10151000429b20000500370001962000429b2000de
:1015200002003700a1982000429b200093498000d0
:101530000401200004097800310078000304e10070
:101540001289d300fcff39000a0009001209d100fa
:101550000281e800040028000409780031007800c6
:101560000304e1001289d300fcff39000281e80086
:10157000000006002b0000002b0000002b000000e4
:101580002b0000002b0000002b0000002b000000af
:101590002b0000002c0000002d0000002e00000099
:1015a0002f00000030000000310000003200000079
:1015b0003300000034000000350000003600000059
:1015c0003700000038000000390000003a00000039
:1015d0003b0000003c0000003d0000003e00000019
:1015e0003f000000400000004100000042000000f9
:1015f00042000000430000004400000045000000dd
:1016000046000000470000004800000049000000bc
:101610004a0000004b0000004c0000004d0000009c
:101620004e0000004f00000050000000510000007c
:10163000520000005300000054000000550000005c
:10164000560000005700000058000000590000003c
:10165000590000005a0000005b0000005c00000020
:101660005d0000005e0000005f0000006000000000
:1016700061000000620000006300000064000000e0
:1016800065000000660000006700000068000000c0
:10169000690000006a0000006b0000006c000000a0
:1016a0006d0000006e0000006f0000007000000080
:1016b0007000000071000000720000007300000064
:1016c0007400000075000000760000007700000044
:1016d00078000000790000007a0000007b00000024
:1016e0007c0000007d0000007e0000007f00000004
:1016f00080000000810000008200000083000000e4
:1017000084000000850000008600000087000000c3
:101710008700000088000000890000008a000000a7
:101720008b0000008c0000008d0000008e00000087
:101730008f00000090000000910000009200000067
:101740009300000094000000950000009600000047
:101750009700000098000000990000009a00000027
:101760009b0000009c0000009d0000009e00000007
:101770009f000000f20720009201880002e02f0085
:10178000810041008008bb006027ef0061c7a8000e
:101790006047a8000700fc0051052000313b88008d
:1017a000a10a2000313b880061e7a800000000008a
:1017b000000000000060fe0061e7af00fdff3700a1
:1017c00000000600f20720009201880002e02f00ce
:1017d000810041001100ba000000060000a0fe00d8
:1017e000cbe2af000600370000d027007008880069
:1017f0000a21ef008500a90013e1a8001a003700b4
:1018000013e1a9008500af001400370004a8ae0062
:1018100015003700008423000a01e3000aa8d7005e
:1018200011003900504080004400de000e08e30043
:101830000200320070408800060037003040880007
:101840004700de0040408800f00720000628b60070
:1018500004e8a80004a8a9000300370000802000c5
:101860005040880004a8a8008660a9000080fe00ff
:04187000004006002e
:020000040000fa
:1018740000080000c4010000020000000000000095
:101884000000000000000000000000000000ff0055
:1018940000ff000000000000000000000000000045
:1018a4000000000000000000000000000000000034
:1018b4000000000000000000000000000000000024
:1018c4000000000000000000000000000000000014
:1018d4000000000000000000000000000000000004
:020000040000fa
:081ae0000040da000000fe00e6
:00000001FF
